:100000003BC062C154C053C052C051C050C04FC069
:100010004EC0A0C24CC04BC04AC049C048C047C037
:1000200046C045C044C004030904200363006F00B8
:100030006400650061006E0064006C006900660089
:1000400065002E0063006F006D000A0374006500F8
:100050007300740012011001FF000008C016DC05D7
:1000600000010102000109021200010100C0320971
:10007000040000000000000011241FBECFE5D4E002
:10008000DEBFCDBF10E0A0E6B0E0E8EBF7E002C0D5
:1000900005900D92A636B107D9F710E0A6E6B0E0BC
:1000A00001C01D92A33AB107E1F7FCD283C3A8CFE8
:1000B00085B7826085BF8BB780648BBF08951F931F
:1000C000CF93DF9390917D00935097FD8DC0209149
:1000D0007A00809179008D3209F084C0983009F05F
:1000E00081C0CCE0D0E0C21BD109CF57DF4F83ECF9
:1000F00080936D008AE5809360001092660098817D
:10010000892F807621F0CE01ABD2282F62C02A81C0
:10011000109276008981882349F49F7119F481E057
:10012000809376001092770022E04DC0853019F45C
:1001300020937E0047C08630B1F58B81813019F461
:1001400084E590E004C0823041F486E690E090932C
:100150007C0080937B0022E122C08330F9F48A8105
:10016000882341F486E290E090937C0080937B00AA
:1001700024E015C0813041F48AE290E090937C0045
:1001800080937B0020E20BC0823041F48AE490E04F
:1001900090937C0080937B002AE001C020E080E403
:1001A0008093660016C0883021F421E080E890E05A
:1001B0000CC0893019F42093800004C08A3011F4F7
:1001C00021E001C020E086E790E090937C008093DE
:1001D0007B008F81882321F48E81821708F4282FD9
:1001E0002093610010927D008091600084FF45C0E3
:1001F000809161008F3F09F440C0182F893008F0CA
:1002000018E0811B8093610080916D0098E8892738
:1002100080936D00112321F120917B0030917C00AF
:100220008091660086FF0AC0912FF901AEE6B0E02A
:1002300084918D9331969150D9F708C0912FD901AF
:10024000EEE6F0E08D9181939150E1F7C9010196BE
:100250001150810F911D1F5F90937C0080937B0054
:100260008EE690E0612F2CD0612F6C5F6C3019F01E
:100270008FEF809361006093600094E180B38C7095
:1002800031F49150D9F710927E0010927800DF91EE
:10029000CF911F910895A82FB92F80E090E041E001
:1002A00050EA609530E009C02D9182279795879597
:1002B00010F084279527305EC8F36F5FA8F3089588
:1002C000EADF8D939D930895CF93CFB7CF93DF93BC
:1002D000C395839BE9F7839B0BC0839B09C0839BDA
:1002E00007C0839B05C0839B03C0839B01C089C05B
:1002F0006F93C0917A00DD27CF57DF4F2F9365E5CD
:10030000839B03C02F916F91E6CF0F931F934F9361
:1003100020E040E15F9300B30C7003FB27F93F93AB
:1003200050E03BE039C01C7040642F77012F5F5FC5
:100330001EC0406810B31C702F7752501FC040641D
:1003400000B32F770C70D1F15F5F00C023C0406213
:1003500010B32F771C7091F15F5F00C025C00C7047
:100360001027515012F45D5F0000115027952C3F6B
:1003700010B3C8F61C700127015027952C3FC8F612
:100380004227499300B30C7010274F7311502795E3
:100390002C3FA8F64695469510B31C7079F00127BE
:1003A000015027952C3F98F66B5A60F3315000B3FB
:1003B000B0F600C010E41ABF002717C03B503195BB
:1003C000C31BD04010E41ABF0881033CF9F00B3482
:1003D000E9F0209178001981110F1213EDCF093641
:1003E00051F10D3211F0013E39F700937F003F913A
:1003F0005F914F911F910F912F916F91CAB7C6FDD9
:1004000067CFDF91CF91CFBFCF91189520917F001B
:10041000222369F310917D00112339F534303AF12C
:1004200030937D002093790010917A003BE0311BDE
:1004300030937A001CC000917D000130B4F40AE5CD
:100440003091600034FD14C000936000CDE6D0E030
:1004500013C0052710E000C0000002BB1AC005272A
:1004600010E0221F1DC010E021C04AE502C032ED9D
:10047000432FC4E1D0E032E011B31C60939A02B381
:1004800011BB5CE020E865E320FF052702BB279550
:1004900017951C3FF0F66695B8F7B1F720FF0527D2
:1004A00002BB279517951C3FD0F62795179517FF88
:1004B000052700001C3F02BBB0F629913A9519F7B9
:1004C000037F10917E00110FC651D04002BB11F086
:1004D0001093780010E41ABF086011B3137F402F07
:1004E000437F54E05A95F1F702BB11BB42BB7FCF6B
:1004F000FC019098889AF89423C00190008007D05E
:10050000029005D001900190019001D017C008D051
:1005100007D006D005D004D003D002D001D0089572
:10052000909A001C0000000008F090980000000065
:1005300000000000000008F4909808956150704099
:100540006115710509F0D9CF789480E491E00197A5
:10055000F1F70895789482B7885282BFE0916B00DA
:10056000F0916C00E0FD26C020916700309168009A
:100570002115310519F485B3896011C02130310589
:1005800019F485B38A600BC02230310519F485B3A4
:10059000866005C02330310519F485B3856085BBBD
:1005A000C901019664E070E0DED09093680080930A
:1005B000670003C085B3807F85BBE832F105E9F5AC
:1005C00080916200181624F48150809362000BC061
:1005D000882349F48FEF8093620088B38C7F88BBB7
:1005E00082B38F7082BB2091690030916A0021151F
:1005F000310519F488B3846211C02130310519F432
:1006000088B388620BC02230310519F488B3886141
:1006100005C02330310519F488B3846188BBC90152
:10062000019664E070E09FD090936A008093690027
:1006300010926C0010926B0012C0E430F10551F47E
:1006400088B3837C88BB85E090E090936C008093B6
:100650006B0005C03196F0936C00E0936B00189529
:10066000FC018181833091F0843028F4813051F095
:10067000823099F409C0853069F0853048F08630C1
:1006800061F40AC0C09A09C0C19A07C0949A05C013
:10069000959A03C0969A01C0979A81E08093620070
:1006A00080E00895CF93DF938FEF87BB84BB81B346
:1006B000826F81BB15BA18BA82B38F7082BB84B7C0
:1006C000807F84BFA7E9B0E0E3E6F0E083E001903B
:1006D0000D928150E1F7AAE9B0E0E3E6F0E083E0B3
:1006E00001900D928150E1F7ADE9B0E0E3E6F0E072
:1006F00083E001900D928150E1F7A0EAB0E0E3E6DB
:10070000F0E083E001900D928150E1F787E990E0FD
:1007100064E070E0EDDE80E197E220E931E0F9018C
:100720003197F1F70197D9F7919A8B9A80E090E091
:1007300020E43FE1F9013197F1F701968A3F9105F5
:10074000C9F78B98B5DC7894919883B7887F8560DA
:1007500083BF89B7816089BFC0E2DEE4B0DCCE012F
:100760000197F1F7FBCF97FB092E07260AD077FDFB
:1007700004D00CD006D000201AF4709561957F4FFC
:100780000895F6F7909581959F4F0895AA1BBB1B7E
:1007900051E107C0AA1FBB1FA617B70710F0A61B81
:1007A000B70B881F991F5A95A9F780959095BC01A2
:0807B000CD010895F894FFCF7C
:0607B8005AFFFFFFFFFFE6
:00000001FF
