:100000007EC0000098C0000096C0000094C00000B0
:1000100092C0000090C000008EC000008CC00000A4
:100020008AC0000088C0000086C0000076C50000BD
:1000300039C5000080C000007EC000007CC0000008
:100040007AC0000078C0000076C0000074C00000D4
:1000500072C00000DEC200006EC000006CC0000074
:100060006AC0000068C0000066C0000064C00000F4
:1000700062C0000060C000005EC000005CC0000004
:100080005AC0000058C0000056C0000054C0000014
:1000900052C0000050C00000120110010000000812
:1000A000C016DC0501000102DC010902200001018B
:1000B0000080320904000002FFFFFF0007058100F5
:1000C0004000050705020040000504030904180369
:1000D0004A006F006E006100680020004D0065005E
:1000E00067006700730000001403430061007000A4
:1000F00053006F007200740065007200000011244C
:100100001FBECFEFD2E0DEBFCDBF11E0A0E0B1E077
:10011000E8EAF9E102C005900D92AA35B107D9F7D6
:1001200011E0AAE5B1E001C01D92A038B107E1F7E6
:1001300008D20C94D20C64CFFC0142983A9AF894FD
:100140001DC00190008007D0029005D00190019061
:10015000019001D011C007D006D005D004D003D043
:1001600002D001D000C0001C429A08F04298000062
:10017000000008F4429808956150704061157105BF
:1001800009F0DFCF789485ED8A95F1F70895DA01CB
:10019000923049F0933061F09130F9F4E8E9F0E001
:1001A00022E130E01EC0EAEAF0E020E230E019C0CF
:1001B000813049F0813018F0823079F408C0EAECDF
:1001C000F0E0849107C0EEECF0E0849103C0E8EE2B
:1001D000F0E08491282F30E004C0E0E0F0E020E07F
:1001E00030E0ED93FC93C9010895CF92DF92EF9236
:1001F000FF920F931F93DF93CF930F92CDB7DEB78C
:1002000080916E01803409F07EC110916F01C12E82
:10021000DD248091E800877F8093E800CE0101967D
:1002200061E070E0FBD28091E8008E778093E80077
:10023000143009F49CC0153050F4123009F440C059
:10024000133008F066C0113009F043C10AC01630FF
:1002500009F4E5C0163008F4B6C0173009F039C10A
:100260000AC16091660170E0882777FD8095982F1C
:100270000E94A3097B018C01298130E0220F331FEA
:100280006AEC70E0621B730B882777FD8095982FCE
:100290000E94A30920E030E044E95FE30E942F0AB6
:1002A0009B01AC01C801B701B7D720E030E04AEAB2
:1002B00052E4B1D720E030E040E450E4ADD706C1CD
:1002C0006091660170E0882777FD8095982F0E94E5
:1002D000A3097B018C01298130E0220F331F6EE2DC
:1002E00071E0621B730B882777FD8095982F0E9421
:1002F000A30920E030E044E95FE30E942F0A9B015C
:10030000AC01C801B70188D720E030E04AEA52E4E6
:10031000DCC06091660170E0882777FD8095982F9A
:100320000E94A3097B018C01298130E0220F331F39
:1003300062E971E0621B730B882777FD8095982F27
:100340000E94A30920E030E044E95FE30E942F0A05
:100350009B01AC01C801B7015FD720E030E04AEA59
:1003600052E459D720E030E040E751E4AEC060915C
:10037000660170E0882777FD8095982FE4D77B0190
:100380008C01298130E0220F331F66EF71E0621B80
:10039000730B882777FD8095982FD5D720E030E024
:1003A00044E95FE30E942F0A9B01AC01C801B70139
:1003B00033D720E030E04AEA52E42DD720E030E0A5
:1003C00040EA51E482C06091660170E0882777FDC1
:1003D0008095982FB8D77B018C01298130E0220FBE
:1003E000331F6AE572E0621B730B882777FD8095E7
:1003F000982FA9D720E030E044E95FE30E942F0A5C
:100400009B01AC01C801B70107D720E030E04AEA00
:1004100052E401D720E030E044E052E456C060915D
:10042000660170E0882777FD8095982F8CD77B0137
:100430008C01298130E0220F331F6EEB72E0621BCA
:10044000730B882777FD8095982F7DD720E030E0CB
:1004500044E95FE30E942F0A9B01AC01C801B70188
:10046000DBD620E030E04AEA52E4D5D620E030E0A6
:1004700046E852E42AC06091660170E0882777FD63
:100480008095982F60D77B018C01298130E0220F65
:10049000331F62E273E0621B730B882777FD809540
:1004A000982F51D720E030E044E95FE3D8D79B0193
:1004B000AC01C801B701B0D620E030E04AEA52E40E
:1004C000AAD620E030E040E952E4A5D609D7262F8D
:1004D000672F30916601C60101970797A0F4E0915C
:1004E0006701F0916801432F50E0822F962F9C0105
:1004F000241735070CF49A01B901A601CF011FD6C4
:100500008BB180588BB90F90CF91DF911F910F91D4
:10051000FF90EF90DF90CF90089581E061E042E39B
:1005200021D282E060E042E31DC284B7877F84BFAE
:1005300088E10FB6F89480936000109260000FBEBF
:10054000A2C28FEF84B98AB91BB85F9A88E893E199
:1005500028EC30E0F9013197F1F70197D9F75F986E
:1005600088E893E128EC30E0F9013197F1F7019741
:10057000D9F715B8AAE5B1E0E0E0F1E083E0019039
:100580000D928150E1F7ADE5B1E0E0E0F1E083E00C
:1005900001900D928150E1F7A0E6B1E0E0E0F1E0DA
:1005A00083E001900D928150E1F7A3E6B1E0E0E035
:1005B000F1E083E001900D928150E1F78AE591E04E
:1005C00064E070E0B9DD01D6909368018093670123
:1005D0005F9A88EE93E028EC30E0F9013197F1F76B
:1005E0000197D9F75F9888EE93E028EC30E0F901A5
:1005F0003197F1F70197D9F710926601789485B594
:10060000856085BD81E080936E008FDF78949ED4F5
:10061000FECF1F920F920FB60F921124CF92DF924E
:10062000EF92FF920F931F932F933F934F935F93FC
:100630006F937F938F939F93AF93BF93CF93DF93EA
:10064000EF93FF9386B5895086BD809167019091A5
:100650006801F2D4882309F052C08091670190911B
:100660006801A9D49C01EB01F1E0CF2ED12C40C050
:100670008091670190916801EBD41C161D06F4F47B
:100680002BB12197C6010C2E02C0880F991F0A9426
:10069000E2F72196282B2BB98091660190E08C011E
:1006A0000E5C1F4FEE24FF24EC1AFD0A80916701B7
:1006B00090916801B801A70142D50CC02BB1C0953B
:1006C000D095C60102C0880F991FCA95E2F78095A0
:1006D00082238BB98091670190916801ADD4882302
:1006E00071F4809167019091680165D49C01EB01E0
:1006F0008091660190E0821793070CF0B9CF90913A
:100700006601892F8F5F809366018A3F50F0995F61
:100710009093660180916701909168016AEF70E0A3
:100720002AD4FF91EF91DF91CF91BF91AF919F912B
:100730008F917F916F915F914F913F912F911F9179
:100740000F91FF90EF90DF90CF900F900FBE0F9022
:100750001F9018959C0140917401509175014617A6
:10076000570718F4F90190E03DC06115710511F0CB
:10077000AB01F8CF8091E8008E778093E80040E0ED
:1007800050E0F0CF80916D01882309F441C085309D
:1007900009F440C08091E80083FD3EC08091E800EC
:1007A00082FD30C08091E80080FF1CC08091F20083
:1007B000282F30E007C081918093F10041505040D4
:1007C0002F5F3F4F4115510519F02830310598F33F
:1007D00090E02830310509F491E08091E8008E77AF
:1007E0008093E8004115510569F6992359F60AC02E
:1007F00080916D01882361F0853061F08091E8007F
:1008000083FD0AC08091E80082FFF2CF80E0089566
:1008100082E0089583E0089581E008959C016115C8
:10082000710529F48091E8008B778093E800F90145
:1008300020C080916D01882361F1853061F1809144
:10084000E80083FF02C081E008958091E80082FF04
:10085000F0CF06C08091F10081936150704021F08B
:100860008091F2008823B1F78091E8008B77809324
:10087000E80061157105E9F606C080916D018823D5
:1008800041F0853041F08091E80080FFF6CF80E0B4
:10089000089582E0089583E008959C0140917401D9
:1008A000509175014617570718F4F90190E03EC0C2
:1008B0006115710511F0AB01F8CF8091E8008E77DA
:1008C0008093E80040E050E0F0CF80916D018823F4
:1008D00009F442C0853009F441C08091E80083FDED
:1008E0003FC08091E80082FD31C08091E80080FF28
:1008F0001DC08091F200282F30E008C084918093C1
:10090000F1003196415050402F5F3F4F4115510546
:1009100019F02830310590F390E02830310509F4C2
:1009200091E08091E8008E778093E80041155105B1
:1009300061F6992351F60AC080916D01882361F018
:10094000853061F08091E80083FD0AC08091E80065
:1009500082FFF2CF80E0089582E0089583E0089559
:1009600081E00895382F282F2EC0822F8F7080931A
:10097000E900231721F4762F942F50E006C07091E0
:10098000EC009091ED005091F00091FF1BC0809120
:10099000EB008E7F8093EB008091ED008D7F809344
:1009A000ED008091EB0081608093EB007093EC0090
:1009B0009093ED005093F0008091EE0087FD02C00F
:1009C00080E008952F5F253080F23F703093E9007A
:1009D00081E0089580916E0188239CF404C0809189
:1009E0006D018823B9F08091E80082FFF8CF8091F3
:1009F000E8008B778093E800089580916D0188234B
:100A000049F08091E80080FFF8CF8091E8008E7770
:100A10008093E800089540D042D08091D8008F772D
:100A20008093D8008091D80080688093D80080910E
:100A3000D8008F7D8093D80019BC82E089BD09B4AD
:100A400000FEFDCF10926D011092690110926B01B2
:100A500010926A0180E060E042E084DF8091E10072
:100A60008E7F8093E1008091E20081608093E200BC
:100A70008091E20088608093E2008091E0008E7FA8
:100A80008093E0000895E3E6F0E080818E7F80832C
:100A900081E080936C01BFCF1092E2000895109224
:100AA000E10008951F920F920FB60F9211241F9329
:100AB0002F933F934F935F936F937F938F939F9366
:100AC000AF93BF93EF93FF931091E9008091EC00F7
:100AD0001092E9008091F000877F8093F000789475
:100AE000C4D01092E9008091F00088608093F000FB
:100AF0001F701093E900FF91EF91BF91AF919F910B
:100B00008F917F916F915F914F913F912F911F91A5
:100B10000F900FBE0F901F9018951F920F920FB657
:100B20000F9211242F933F934F935F936F937F9373
:100B30008F939F93AF93BF93EF93FF938091E100C7
:100B400082FF0AC08091E20082FF06C08091E1002E
:100B50008B7F8093E100F9D18091E10080FF17C085
:100B60008091E20080FF13C08091E2008E7F80932D
:100B7000E2008091E20080618093E2008091D800E1
:100B800080628093D80019BC10926D01DED18091F3
:100B9000E10084FF2EC08091E20084FF2AC019BCCE
:100BA00082E089BD09B400FEFDCF8091D8008F7D21
:100BB0008093D8008091E1008F7E8093E100809146
:100BC000E2008F7E8093E2008091E200816080935A
:100BD000E20080916901882311F084E007C08091D0
:100BE000E30087FD02C081E001C083E080936D01D6
:100BF000ACD18091E10083FF27C08091E20083FFA8
:100C000023C08091E100877F8093E10082E08093A0
:100C10006D01109269018091E1008E7F8093E10067
:100C20008091E2008E7F8093E2008091E2008061FB
:100C30008093E20080E060E042E094DE8091F0008A
:100C400088608093F00081D1FF91EF91BF91AF91C7
:100C50009F918F917F916F915F914F913F912F91D4
:100C60000F900FBE0F901F9018951F93DF93CF9397
:100C7000CDB7DEB7AC970FB6F894DEBF0FBECDBFD1
:100C8000EEE6F1E08091F100819321E0E637F20792
:100C9000C9F7ABDA8091E80083FF3FC180916E0114
:100CA00030916F01353009F48DC0363040F4313069
:100CB000E1F1313070F0333009F02FC136C03830F7
:100CC00009F4FDC0393009F40CC1363009F025C1F2
:100CD0009CC0803821F0823809F01FC108C0909173
:100CE0006A0180916B018823B1F0926014C08091F9
:100CF00072018F70853008F010C18093E9008091F7
:100D0000EB0090E025E0969587952A95E1F7982FDE
:100D100091701092E9008091E800877F8093E8004D
:100D20009093F1001092F100D5C0882319F0823021
:100D300009F0F3C090E08F719070009721F0029756
:100D400009F0EBC00CC080917001813009F0E5C062
:100D500010926B01333081F580936B012DC080912F
:100D60007001882349F5209172012F70822F8150E4
:100D7000843008F0D2C02093E9008091EB0080FF1E
:100D80001BC0333021F48091EB00806213C080914E
:100D9000EB0080618093EB0081E090E002C0880F5F
:100DA000991F2A95E2F78093EA001092EA00809159
:100DB000EB0088608093EB001092E9008091E800DE
:100DC000877F8BC0882309F0A8C0109170011F771E
:100DD0008091E3008078812B8093E3008091E8008C
:100DE000877F8093E800F6DD8091E80080FFFCCFEC
:100DF0008091E30080688093E300112311F482E086
:100E000001C083E080936D0188C08058823008F073
:100E100084C0809170019091710123E08C3D920714
:100E200009F033C083E08C838AE28B837FB7F89428
:100E3000DE0115966EE040E050E011E2E62FF0E0B2
:100E400010935700849140FF03C082958F706F5FAD
:100E50008F70282F30E08A3018F0C901C79602C081
:100E6000C901C0968D939D934F5F5F4F44315105EB
:100E700029F77FBF8091E800877F8093E800CE014B
:100E800003966AE270E066DC14C0609172017091B2
:100E90007301AE014F5F5F4F7AD9BC01009709F42F
:100EA0003CC08091E800877F8093E80089819A8127
:100EB000F4DC8091E8008B778093E8002EC08038C6
:100EC00061F58091E800877F8093E8008091690157
:100ED0008093F1008091E8008E778093E8007ADDBE
:100EE0001CC08823D1F4909170019230B0F48091AD
:100EF000E800877F8093E800909369016BDD809123
:100F00006901882331F48091E30087FD02C081E00C
:100F100001C084E080936D0100DB8091E80083FFD5
:100F20000AC08091E800877F8093E8008091EB0001
:100F300080628093EB00AC960FB6F894DEBF0FBED4
:100F4000CDBFCF91DF911F91089508951F93809198
:100F50006D01882371F01091E9008091EC001092EE
:100F6000E9008091E80083FF01C07FDE1F701093CD
:100F7000E9001F910895DC01009729F040E050E05E
:100F800020E030E010C0A2D4ED91FC911197E20F67
:100F9000F31F82819381861B970B938382834F5F1C
:100FA0005F4F2C5F3F4F12968D919C91139748177E
:100FB000590754F30895EF92FF920F931F93CF9325
:100FC000DF93EC01009761F0EA80FB801E141F04A0
:100FD0003CF400E010E041E050E064E070E014C058
:100FE00075D4FD01E60FF71FA80FB91F22813381C9
:100FF00012968D919C911397281739070CF48A014A
:101000004F5F5F4F6C5F7F4FA881B981C801880F28
:10101000991F880F991F4E155F051CF3FD01E80FFE
:10102000F91F6081718182819381DF91CF911F913E
:101030000F91FF90EF900895FC01009709F446D4BA
:1010400020E082819381892B09F421E0822F089589
:10105000CF92DF92EF92FF920F931F93CF93DF9384
:101060008C01009779F0DC011296ED90FC901397BB
:101070001E141F043CF4C0E0D0E041E050E064E006
:1010800070E014C023D4FD01E60FF71FA80FB91FAD
:101090002281338112968D919C91139728173907DD
:1010A0000CF4EA014F5F5F4F6C5F7F4FF801A08146
:1010B000B181CE01880F991F880F991F4E155F05CA
:1010C00014F3BC01FD01E80FF91FF080E180D2802C
:1010D000C3809E012F5F3F4FA901440F551F440F4E
:1010E000551F17C0D801ED91FC91DF01A40FB51F6A
:1010F0008D919D910D90BC91A02DE60FF71F8083DF
:101100009183A283B3832F5F3F4F6C5F7F4F4C5F10
:101110005F4FF80182819381281739071CF30197EB
:10112000938382836F2D7E2D8D2D9C2DDF91CF910A
:101130001F910F91FF90EF90DF90CF900895EF9265
:10114000FF920F931F93CF93DF93EC017A018B01F2
:10115000009709F4BBD36A817B818C819D816817DC
:101160007907C9F4660F771F7D836C83660F771F3D
:10117000660F771F88819981E2D2998388830097CF
:1011800051F460917E0170917F0187E291E0ABD3D1
:1011900081E090E007D48A819B81880F991F880F96
:1011A000991FE881F981E80FF91FE082F18202833B
:1011B00013838A819B8101969B838A83DF91CF91E0
:1011C0001F910F91FF90EF9008951F93CF93DF939E
:1011D00086E090E0AFD1192FC82FD92F209751F476
:1011E00060917E0170917F018CE391E07CD381E07E
:1011F00090E0D8D380E091E09DD1888399831B82D1
:101200001A8280E490E09D838C838C2F912FDF9154
:10121000CF911F9108955058BB27AA270ED0E5C043
:10122000D6D030F0DBD020F031F49F3F11F41EF423
:10123000CBC00EF4E095E7FBC1C0E92FE7D080F307
:10124000BA17620773078407950718F071F49EF5C3
:10125000FFC00EF4E0950B2EBA2FA02D0B01B901A3
:1012600090010C01CA01A0011124FF27591B99F01C
:10127000593F50F4503E68F11A16F040A22F232F28
:10128000342F4427585FF3CF469537952795A79578
:10129000F0405395C9F77EF41F16BA0B620B730B1F
:1012A000840BBAF09150A1F0FF0FBB1F661F771F90
:1012B000881FC2F70EC0BA0F621F731F841F48F445
:1012C000879577956795B795F7959E3F08F0B3CFCB
:1012D0009395880F08F09927EE0F979587950895B5
:1012E00004D06894B111B5C0089598D088F09F5784
:1012F00090F0B92F9927B751A0F0D1F0660F771F62
:10130000881F991F1AF0BA95C9F712C0B13081F041
:101310009FD0B1E008959CC0672F782F8827B85FD1
:1013200039F0B93FCCF3869577956795B395D9F7A2
:101330003EF490958095709561957F4F8F4F9F4FAC
:101340000895E89409C097FB3EF4909580957095B8
:1013500061957F4F8F4F9F4F9923A9F0F92F96E901
:10136000BB279395F695879577956795B795F11176
:10137000F8CFFAF4BB0F11F460FF1BC06F5F7F4F13
:101380008F4F9F4F16C0882311F096E911C0772325
:1013900021F09EE8872F762F05C0662371F096E82E
:1013A000862F70E060E02AF09A95660F771F881FFD
:1013B000DAF7880F9695879597F9089597F99F67BB
:1013C00080E870E060E008959FEF80EC08950024CD
:1013D0000A941616170618060906089500240A949A
:1013E00012161306140605060895092E0394000C20
:1013F00011F4882352F0BB0F40F4BF2B11F460FFAF
:1014000004C06F5F7F4F8F4F9F4F089557FD9058D7
:10141000440F551F59F05F3F71F04795880F97FBB8
:10142000991F61F09F3F79F0879508951216130672
:101430001406551FF2CF4695F1DF08C016161706A1
:101440001806991FF1CF86957105610508940895D6
:10145000E894BB2766277727CB0197F908950AD030
:10146000C4CFB5DF28F0BADF18F0952309F0A6CF76
:10147000ABCFEFCFCBDFA8F39923D9F35523C9F333
:10148000950F50E0551FAA27EE27FF27BB27002402
:101490000894679520F4E20FF31FB41F0A1E220F71
:1014A000331F441FAA1F6695A9F7779530F4F30FF1
:1014B000B41F0A1E121E08F46395330F441FAA1F9F
:1014C000221F769599F7879520F4B40F0A1E121EF5
:1014D000631F440FAA1F221F331F8695A9F7862F6B
:1014E000712D602D11249F5750408AF0E1F0882320
:1014F0004AF0EE0FFF1FBB1F661F771F881F91501A
:101500005040A9F79E3F510570F058CFA2CF5F3FE2
:10151000ECF3983EDCF3869577956795B795F7954C
:10152000E7959F5FC1F7FE2B880F911D96958795D4
:1015300097F90895CF93DF93BC018230910510F4A1
:1015400062E070E0A0917801B0917901ED01E0E0F6
:10155000F0E040E050E021C088819981861797072C
:1015600069F48A819B81309719F09383828304C048
:101570009093790180937801FE0134C06817790750
:1015800038F44115510519F08417950708F4AC019A
:10159000FE018A819B819C01E9012097E9F64115B2
:1015A0005105A9F1CA01861B970B049708F4BA01EB
:1015B000E0E0F0E02AC08D919C9111978417950787
:1015C000F9F46417750781F412968D919C91139725
:1015D000309719F09383828304C0909379018093AC
:1015E0007801FD0132964FC0CA01861B970BFD01A1
:1015F000E80FF91F6193719302978D939C9343C0F9
:10160000FD01828193819C01D9011097A1F68091FF
:10161000760190917701892B41F480915501909149
:101620005601909377018093760140915701509134
:1016300058014115510541F44DB75EB780915301F2
:1016400090915401481B590B2091760130917701FC
:1016500024173507B0F4CA01821B930B861797072E
:1016600080F0AB014E5F5F4F8417950750F0420F3B
:10167000531F5093770140937601F9016193719361
:1016800002C0E0E0F0E0CF01DF91CF910895CF9369
:10169000DF93009709F450C0EC0122971B821A8255
:1016A000A0917801B0917901109709F140E050E0E4
:1016B000AC17BD0708F1BB83AA83FE0121913191CC
:1016C000E20FF31FAE17BF0779F48D919C9111972C
:1016D000280F391F2E5F3F4F3983288312968D9133
:1016E0009C9113979B838A834115510571F4D09384
:1016F0007901C093780120C012968D919C91139727
:10170000AD01009711F0DC01D3CFFA01D383C2837E
:1017100021913191E20FF31FCE17DF0769F4888121
:101720009981280F391F2E5F3F4FFA0131832083A3
:101730008A819B8193838283DF91CF910895A0E07A
:10174000B0E0E4EAFBE0FDC08C01009721F4CB019E
:10175000F1DE8C01B6C09EEFE92E9FEFF92EE00E70
:10176000F11E5801A60EB71EAE14BF0408F4A7C0A0
:101770008EEF882E8FEF982E8A0C9B1CE7014881F4
:10178000598146175707B0F04530510508F499C004
:10179000CA0104978617970708F493C04250504037
:1017A000461B570BF4015183408379836883C5013D
:1017B0006EDF87C06B01C41AD50AE0917801F09101
:1017C0007901A0E0B0E0C0E0D0E042C0E815F90542
:1017D000A1F5208131812C153D0578F1C9010296D2
:1017E0008C159D05A8F04E5F5F4F420F531FE70118
:1017F0005983488322813381109729F013963C93B3
:101800002E9312975EC0309379012093780159C0CE
:10181000225030402C193D0931832083109729F044
:101820001396FC93EE93129704C0F0937901E09322
:101830007801F7017183608344C080819181C8176A
:10184000D90708F4EC01DF01828193819C01F90141
:10185000309709F0BBCF400F511F809176019091D6
:10186000770184179507E9F4C617D707D0F42091BC
:101870005701309158012115310541F42DB73EB77C
:101880008091530190915401281B390BA216B30685
:10189000B0F4B0927701A0927601E7017983688372
:1018A00010C0CB0147DEEC01009749F0F701408101
:1018B0005181B8010FD0C801EADE8E0102C000E0FC
:1018C00010E0C801CDB7DEB7ECE057C081E090E092
:1018D000F89468C0FB01DC0102C001900D924150F8
:1018E0005040D8F70895EF92FF920F931F93CF9334
:1018F000DF937C018B01DB0113968C9181FD03C08A
:10190000CFEFDFEF13C0C0E0D0E00BC0D8011896D6
:10191000ED91FC911997B8010995892B11F0CFEF42
:10192000DFEFF70181917F01882381F7CE01CDB7E9
:10193000DEB7E6E028C02F923F924F925F926F92FF
:101940007F928F929F92AF92BF92CF92DF92EF924F
:10195000FF920F931F93CF93DF93CDB7DEB7CA1BD0
:10196000DB0B0FB6F894DEBF0FBECDBF09942A88FB
:10197000398848885F846E847D848C849B84AA84A3
:10198000B984C884DF80EE80FD800C811B81AA8130
:10199000B981CE0FD11D0FB6F894DEBF0FBECDBFFB
:0819A000ED010895F894FFCF5A
:1019A800FFFFFF236974656D73203D2025640A00DD
:1019B8004974656D733A0020286B3A2025642C2001
:1019C800763A2025642900436F756C646E2774206D
:1019D800657870616E64205051210A00436F756C00
:1019E800646E277420616C6C6F636174652050515C
:0A19F800210A002000800100000019
:00000001FF
